{
  "_format": "hh-sol-artifact-1",
  "contractName": "MyEpicNFT",
  "sourceName": "contracts/MyEpicNFT.sol",
  "abi": [
    {
      "inputs": [],
      "stateMutability": "nonpayable",
      "type": "constructor"
    },
    {
      "anonymous": false,
      "inputs": [
        {
          "indexed": true,
          "internalType": "address",
          "name": "owner",
          "type": "address"
        },
        {
          "indexed": true,
          "internalType": "address",
          "name": "approved",
          "type": "address"
        },
        {
          "indexed": true,
          "internalType": "uint256",
          "name": "tokenId",
          "type": "uint256"
        }
      ],
      "name": "Approval",
      "type": "event"
    },
    {
      "anonymous": false,
      "inputs": [
        {
          "indexed": true,
          "internalType": "address",
          "name": "owner",
          "type": "address"
        },
        {
          "indexed": true,
          "internalType": "address",
          "name": "operator",
          "type": "address"
        },
        {
          "indexed": false,
          "internalType": "bool",
          "name": "approved",
          "type": "bool"
        }
      ],
      "name": "ApprovalForAll",
      "type": "event"
    },
    {
      "anonymous": false,
      "inputs": [
        {
          "indexed": false,
          "internalType": "address",
          "name": "sender",
          "type": "address"
        },
        {
          "indexed": false,
          "internalType": "uint256",
          "name": "tokenId",
          "type": "uint256"
        }
      ],
      "name": "NewEpicNFTMinted",
      "type": "event"
    },
    {
      "anonymous": false,
      "inputs": [
        {
          "indexed": true,
          "internalType": "address",
          "name": "from",
          "type": "address"
        },
        {
          "indexed": true,
          "internalType": "address",
          "name": "to",
          "type": "address"
        },
        {
          "indexed": true,
          "internalType": "uint256",
          "name": "tokenId",
          "type": "uint256"
        }
      ],
      "name": "Transfer",
      "type": "event"
    },
    {
      "inputs": [
        {
          "internalType": "address",
          "name": "to",
          "type": "address"
        },
        {
          "internalType": "uint256",
          "name": "tokenId",
          "type": "uint256"
        }
      ],
      "name": "approve",
      "outputs": [],
      "stateMutability": "nonpayable",
      "type": "function"
    },
    {
      "inputs": [
        {
          "internalType": "address",
          "name": "owner",
          "type": "address"
        }
      ],
      "name": "balanceOf",
      "outputs": [
        {
          "internalType": "uint256",
          "name": "",
          "type": "uint256"
        }
      ],
      "stateMutability": "view",
      "type": "function"
    },
    {
      "inputs": [
        {
          "internalType": "uint256",
          "name": "tokenId",
          "type": "uint256"
        }
      ],
      "name": "genDefs",
      "outputs": [
        {
          "internalType": "string",
          "name": "",
          "type": "string"
        }
      ],
      "stateMutability": "view",
      "type": "function"
    },
    {
      "inputs": [
        {
          "internalType": "uint256",
          "name": "tokenId",
          "type": "uint256"
        }
      ],
      "name": "genTheWord",
      "outputs": [
        {
          "internalType": "string",
          "name": "",
          "type": "string"
        }
      ],
      "stateMutability": "view",
      "type": "function"
    },
    {
      "inputs": [
        {
          "internalType": "uint256",
          "name": "tokenId",
          "type": "uint256"
        }
      ],
      "name": "getApproved",
      "outputs": [
        {
          "internalType": "address",
          "name": "",
          "type": "address"
        }
      ],
      "stateMutability": "view",
      "type": "function"
    },
    {
      "inputs": [],
      "name": "getMaxNFTsMintable",
      "outputs": [
        {
          "internalType": "uint256",
          "name": "",
          "type": "uint256"
        }
      ],
      "stateMutability": "view",
      "type": "function"
    },
    {
      "inputs": [],
      "name": "getTotalNFTsMinted",
      "outputs": [
        {
          "internalType": "uint256",
          "name": "",
          "type": "uint256"
        }
      ],
      "stateMutability": "view",
      "type": "function"
    },
    {
      "inputs": [
        {
          "internalType": "address",
          "name": "owner",
          "type": "address"
        },
        {
          "internalType": "address",
          "name": "operator",
          "type": "address"
        }
      ],
      "name": "isApprovedForAll",
      "outputs": [
        {
          "internalType": "bool",
          "name": "",
          "type": "bool"
        }
      ],
      "stateMutability": "view",
      "type": "function"
    },
    {
      "inputs": [],
      "name": "makeMiganNFT",
      "outputs": [],
      "stateMutability": "nonpayable",
      "type": "function"
    },
    {
      "inputs": [],
      "name": "name",
      "outputs": [
        {
          "internalType": "string",
          "name": "",
          "type": "string"
        }
      ],
      "stateMutability": "view",
      "type": "function"
    },
    {
      "inputs": [
        {
          "internalType": "uint256",
          "name": "tokenId",
          "type": "uint256"
        }
      ],
      "name": "ownerOf",
      "outputs": [
        {
          "internalType": "address",
          "name": "",
          "type": "address"
        }
      ],
      "stateMutability": "view",
      "type": "function"
    },
    {
      "inputs": [
        {
          "internalType": "uint256",
          "name": "tokenId",
          "type": "uint256"
        }
      ],
      "name": "pickRandomColor",
      "outputs": [
        {
          "internalType": "string",
          "name": "",
          "type": "string"
        }
      ],
      "stateMutability": "view",
      "type": "function"
    },
    {
      "inputs": [
        {
          "internalType": "uint256",
          "name": "tokenId",
          "type": "uint256"
        }
      ],
      "name": "pickRandomFirstWord",
      "outputs": [
        {
          "internalType": "string",
          "name": "",
          "type": "string"
        }
      ],
      "stateMutability": "view",
      "type": "function"
    },
    {
      "inputs": [
        {
          "internalType": "uint256",
          "name": "tokenId",
          "type": "uint256"
        }
      ],
      "name": "pickRandomSecondWord",
      "outputs": [
        {
          "internalType": "string",
          "name": "",
          "type": "string"
        }
      ],
      "stateMutability": "view",
      "type": "function"
    },
    {
      "inputs": [
        {
          "internalType": "uint256",
          "name": "tokenId",
          "type": "uint256"
        }
      ],
      "name": "pickRandomThirdWord",
      "outputs": [
        {
          "internalType": "string",
          "name": "",
          "type": "string"
        }
      ],
      "stateMutability": "view",
      "type": "function"
    },
    {
      "inputs": [
        {
          "internalType": "address",
          "name": "from",
          "type": "address"
        },
        {
          "internalType": "address",
          "name": "to",
          "type": "address"
        },
        {
          "internalType": "uint256",
          "name": "tokenId",
          "type": "uint256"
        }
      ],
      "name": "safeTransferFrom",
      "outputs": [],
      "stateMutability": "nonpayable",
      "type": "function"
    },
    {
      "inputs": [
        {
          "internalType": "address",
          "name": "from",
          "type": "address"
        },
        {
          "internalType": "address",
          "name": "to",
          "type": "address"
        },
        {
          "internalType": "uint256",
          "name": "tokenId",
          "type": "uint256"
        },
        {
          "internalType": "bytes",
          "name": "_data",
          "type": "bytes"
        }
      ],
      "name": "safeTransferFrom",
      "outputs": [],
      "stateMutability": "nonpayable",
      "type": "function"
    },
    {
      "inputs": [
        {
          "internalType": "address",
          "name": "operator",
          "type": "address"
        },
        {
          "internalType": "bool",
          "name": "approved",
          "type": "bool"
        }
      ],
      "name": "setApprovalForAll",
      "outputs": [],
      "stateMutability": "nonpayable",
      "type": "function"
    },
    {
      "inputs": [
        {
          "internalType": "bytes4",
          "name": "interfaceId",
          "type": "bytes4"
        }
      ],
      "name": "supportsInterface",
      "outputs": [
        {
          "internalType": "bool",
          "name": "",
          "type": "bool"
        }
      ],
      "stateMutability": "view",
      "type": "function"
    },
    {
      "inputs": [],
      "name": "symbol",
      "outputs": [
        {
          "internalType": "string",
          "name": "",
          "type": "string"
        }
      ],
      "stateMutability": "view",
      "type": "function"
    },
    {
      "inputs": [
        {
          "internalType": "uint256",
          "name": "tokenId",
          "type": "uint256"
        }
      ],
      "name": "tokenURI",
      "outputs": [
        {
          "internalType": "string",
          "name": "",
          "type": "string"
        }
      ],
      "stateMutability": "view",
      "type": "function"
    },
    {
      "inputs": [
        {
          "internalType": "address",
          "name": "from",
          "type": "address"
        },
        {
          "internalType": "address",
          "name": "to",
          "type": "address"
        },
        {
          "internalType": "uint256",
          "name": "tokenId",
          "type": "uint256"
        }
      ],
      "name": "transferFrom",
      "outputs": [],
      "stateMutability": "nonpayable",
      "type": "function"
    }
  ],
  "bytecode": "0x608060405260006008556040518061026001604052806040518060400160405280600381526020017f726564000000000000000000000000000000000000000000000000000000000081525081526020016040518060400160405280600581526020017f677265656e00000000000000000000000000000000000000000000000000000081525081526020016040518060400160405280600481526020017f626c75650000000000000000000000000000000000000000000000000000000081525081526020016040518060400160405280600481526020017f6379616e0000000000000000000000000000000000000000000000000000000081525081526020016040518060400160405280600781526020017f6d6167656e74610000000000000000000000000000000000000000000000000081525081526020016040518060400160405280600681526020017f79656c6c6f77000000000000000000000000000000000000000000000000000081525081526020016040518060400160405280600581526020017f626c61636b00000000000000000000000000000000000000000000000000000081525081526020016040518060400160405280600681526020017f6f72616e6765000000000000000000000000000000000000000000000000000081525081526020016040518060400160405280600681526020017f707572706c65000000000000000000000000000000000000000000000000000081525081526020016040518060400160405280600581526020017f62726f776e00000000000000000000000000000000000000000000000000000081525081526020016040518060400160405280600481526020017f70696e6b0000000000000000000000000000000000000000000000000000000081525081526020016040518060400160405280600481526020017f677261790000000000000000000000000000000000000000000000000000000081525081526020016040518060400160405280600481526020017f6c696d650000000000000000000000000000000000000000000000000000000081525081526020016040518060400160405280600581526020017f6f6c69766500000000000000000000000000000000000000000000000000000081525081526020016040518060400160405280600681526020017f6d61726f6f6e000000000000000000000000000000000000000000000000000081525081526020016040518060400160405280600481526020017f6e6176790000000000000000000000000000000000000000000000000000000081525081526020016040518060400160405280600481526020017f7465616c0000000000000000000000000000000000000000000000000000000081525081526020016040518060400160405280600681526020017f73696c766572000000000000000000000000000000000000000000000000000081525081526020016040518060400160405280600481526020017f676f6c640000000000000000000000000000000000000000000000000000000081525081525060099060136200048692919062000f78565b506040518060a00160405280606281526020016200532960629139600a9080519060200190620004b892919062000fdf565b506040518060600160405280602481526020016200543d60249139600b9080519060200190620004ea92919062000fdf565b506040518060400160405280601e81526020017f3c73746f70206f66667365743d273025272073746f702d636f6c6f723d270000815250600c90805190602001906200053892919062000fdf565b506040518060400160405280601f81526020017f3c73746f70206f66667365743d27353025272073746f702d636f6c6f723d2700815250600d90805190602001906200058692919062000fdf565b506040518060400160405280602081526020017f3c73746f70206f66667365743d2731303025272073746f702d636f6c6f723d27815250600e9080519060200190620005d492919062000fdf565b506040518060400160405280600381526020017f272f3e0000000000000000000000000000000000000000000000000000000000815250600f90805190602001906200062292919062000fdf565b506040518060400160405280601881526020017f3c2f72616469616c4772616469656e743e3c2f646566733e0000000000000000815250601090805190602001906200067092919062000fdf565b506040518060800160405280604a8152602001620052df604a913960119080519060200190620006a292919062000fdf565b506040518060c00160405280608c8152602001620053b1608c913960129080519060200190620006d492919062000fdf565b506040518060400160405280600781526020017f3c2f746578743e00000000000000000000000000000000000000000000000000815250601390805190602001906200072292919062000fdf565b506040518060400160405280600681526020017f3c2f7376673e0000000000000000000000000000000000000000000000000000815250601490805190602001906200077092919062000fdf565b506040518060e001604052806040518060400160405280600781526020017f417765736f6d650000000000000000000000000000000000000000000000000081525081526020016040518060400160405280600681526020017f46696c746879000000000000000000000000000000000000000000000000000081525081526020016040518060400160405280600981526020017f4272696c6c69616e74000000000000000000000000000000000000000000000081525081526020016040518060400160405280600581526020017f417766756c00000000000000000000000000000000000000000000000000000081525081526020016040518060400160405280600881526020017f436861726d696e6700000000000000000000000000000000000000000000000081525081526020016040518060400160405280600881526020017f44697374696e637400000000000000000000000000000000000000000000000081525081526020016040518060400160405280600b81526020017f416476656e7475726f757300000000000000000000000000000000000000000081525081525060159060076200092992919062001070565b506040518061014001604052806040518060400160405280600781526020017f4368656e6e61690000000000000000000000000000000000000000000000000081525081526020016040518060400160405280600c81526020017f53616e4672616e636973636f000000000000000000000000000000000000000081525081526020016040518060400160405280600781526020017f41746c616e74610000000000000000000000000000000000000000000000000081525081526020016040518060400160405280600781526020017f4e6577596f726b0000000000000000000000000000000000000000000000000081525081526020016040518060400160405280600681526020017f4c6f6e646f6e000000000000000000000000000000000000000000000000000081525081526020016040518060400160405280600581526020017f506172697300000000000000000000000000000000000000000000000000000081525081526020016040518060400160405280600581526020017f546f6b796f00000000000000000000000000000000000000000000000000000081525081526020016040518060400160405280600681526020017f4265726c696e000000000000000000000000000000000000000000000000000081525081526020016040518060400160405280600681526020017f4d6f73636f77000000000000000000000000000000000000000000000000000081525081526020016040518060400160405280600681526020017f4d756d6261690000000000000000000000000000000000000000000000000000815250815250601690600a62000b94929190620010d7565b506040518061012001604052806040518060400160405280600481526020017f49646c690000000000000000000000000000000000000000000000000000000081525081526020016040518060400160405280600581526020017f50697a7a6100000000000000000000000000000000000000000000000000000081525081526020016040518060400160405280600681526020017f427572676572000000000000000000000000000000000000000000000000000081525081526020016040518060400160405280600581526020017f506173746100000000000000000000000000000000000000000000000000000081525081526020016040518060400160405280600581526020017f537573686900000000000000000000000000000000000000000000000000000081525081526020016040518060400160405280600581526020017f52616d656e00000000000000000000000000000000000000000000000000000081525081526020016040518060400160405280600781526020017f4e6f6f646c65730000000000000000000000000000000000000000000000000081525081526020016040518060400160405280600481526020017f446f73610000000000000000000000000000000000000000000000000000000081525081526020016040518060400160405280600781526020017f42697279616e6900000000000000000000000000000000000000000000000000815250815250601790600962000dc49291906200113e565b5034801562000dd257600080fd5b506040518060400160405280600881526020017f4d6967616e4e46540000000000000000000000000000000000000000000000008152506040518060400160405280600581526020017f4d4947414e000000000000000000000000000000000000000000000000000000815250816000908051906020019062000e5792919062000fdf565b50806001908051906020019062000e7092919062000fdf565b50505062000ea36040518060600160405280602681526020016200538b602691394262000ea960201b620016841760201c565b6200138a565b62000f4b828260405160240162000ec292919062001284565b6040516020818303038152906040527f9710a9d0000000000000000000000000000000000000000000000000000000007bffffffffffffffffffffffffffffffffffffffffffffffffffffffff19166020820180517bffffffffffffffffffffffffffffffffffffffffffffffffffffffff838183161783525050505062000f4f60201b60201c565b5050565b60008151905060006a636f6e736f6c652e6c6f679050602083016000808483855afa5050505050565b82805482825590600052602060002090810192821562000fcc579160200282015b8281111562000fcb57825182908051906020019062000fba92919062000fdf565b509160200191906001019062000f99565b5b50905062000fdb9190620011a5565b5090565b82805462000fed9062001314565b90600052602060002090601f0160209004810192826200101157600085556200105d565b82601f106200102c57805160ff19168380011785556200105d565b828001600101855582156200105d579182015b828111156200105c5782518255916020019190600101906200103f565b5b5090506200106c9190620011cd565b5090565b828054828255906000526020600020908101928215620010c4579160200282015b82811115620010c3578251829080519060200190620010b292919062000fdf565b509160200191906001019062001091565b5b509050620010d39190620011a5565b5090565b8280548282559060005260206000209081019282156200112b579160200282015b828111156200112a5782518290805190602001906200111992919062000fdf565b5091602001919060010190620010f8565b5b5090506200113a9190620011a5565b5090565b82805482825590600052602060002090810192821562001192579160200282015b82811115620011915782518290805190602001906200118092919062000fdf565b50916020019190600101906200115f565b5b509050620011a19190620011a5565b5090565b5b80821115620011c95760008181620011bf9190620011ec565b50600101620011a6565b5090565b5b80821115620011e8576000816000905550600101620011ce565b5090565b508054620011fa9062001314565b6000825580601f106200120e57506200122f565b601f0160209004906000526020600020908101906200122e9190620011cd565b5b50565b60006200123f82620012b8565b6200124b8185620012c3565b93506200125d818560208601620012de565b620012688162001379565b840191505092915050565b6200127e81620012d4565b82525050565b60006040820190508181036000830152620012a0818562001232565b9050620012b1602083018462001273565b9392505050565b600081519050919050565b600082825260208201905092915050565b6000819050919050565b60005b83811015620012fe578082015181840152602081019050620012e1565b838111156200130e576000848401525b50505050565b600060028204905060018216806200132d57607f821691505b602082108114156200134457620013436200134a565b5b50919050565b7f4e487b7100000000000000000000000000000000000000000000000000000000600052602260045260246000fd5b6000601f19601f8301169050919050565b613f45806200139a6000396000f3fe608060405234801561001057600080fd5b50600436106101425760003560e01c80637f404e6f116100b8578063b187301f1161007c578063b187301f1461039b578063b4c3b8be146103cb578063b88d4fde146103e9578063c575757a14610405578063c87b56dd14610435578063e985e9c51461046557610142565b80637f404e6f1461030957806395d89b4114610339578063a048ac3c14610357578063a22cb46514610361578063afea8c471461037d57610142565b80632c1392711161010a5780632c139271146101fd5780632de38d681461022d57806342842e0e1461025d578063514dc8c6146102795780636352211e146102a957806370a08231146102d957610142565b806301ffc9a71461014757806306fdde0314610177578063081812fc14610195578063095ea7b3146101c557806323b872dd146101e1575b600080fd5b610161600480360381019061015c91906129b6565b610495565b60405161016e919061372f565b60405180910390f35b61017f610577565b60405161018c919061374a565b60405180910390f35b6101af60048036038101906101aa9190612a08565b610609565b6040516101bc919061369f565b60405180910390f35b6101df60048036038101906101da919061297a565b61068e565b005b6101fb60048036038101906101f69190612874565b6107a6565b005b61021760048036038101906102129190612a08565b610806565b604051610224919061374a565b60405180910390f35b61024760048036038101906102429190612a08565b6108ae565b604051610254919061374a565b60405180910390f35b61027760048036038101906102729190612874565b6109cc565b005b610293600480360381019061028e9190612a08565b6109ec565b6040516102a0919061374a565b60405180910390f35b6102c360048036038101906102be9190612a08565b610b0a565b6040516102d0919061369f565b60405180910390f35b6102f360048036038101906102ee919061280f565b610bbc565b6040516103009190613a31565b60405180910390f35b610323600480360381019061031e9190612a08565b610c74565b604051610330919061374a565b60405180910390f35b610341610d04565b60405161034e919061374a565b60405180910390f35b61035f610d96565b005b61037b6004803603810190610376919061293e565b610feb565b005b61038561116c565b6040516103929190613a31565b60405180910390f35b6103b560048036038101906103b09190612a08565b6111b5565b6040516103c2919061374a565b60405180910390f35b6103d36112d3565b6040516103e09190613a31565b60405180910390f35b61040360048036038101906103fe91906128c3565b61131e565b005b61041f600480360381019061041a9190612a08565b611380565b60405161042c919061374a565b60405180910390f35b61044f600480360381019061044a9190612a08565b61149e565b60405161045c919061374a565b60405180910390f35b61047f600480360381019061047a9190612838565b6115f0565b60405161048c919061372f565b60405180910390f35b60007f80ac58cd000000000000000000000000000000000000000000000000000000007bffffffffffffffffffffffffffffffffffffffffffffffffffffffff1916827bffffffffffffffffffffffffffffffffffffffffffffffffffffffff1916148061056057507f5b5e139f000000000000000000000000000000000000000000000000000000007bffffffffffffffffffffffffffffffffffffffffffffffffffffffff1916827bffffffffffffffffffffffffffffffffffffffffffffffffffffffff1916145b80610570575061056f82611720565b5b9050919050565b60606000805461058690613cd0565b80601f01602080910402602001604051908101604052809291908181526020018280546105b290613cd0565b80156105ff5780601f106105d4576101008083540402835291602001916105ff565b820191906000526020600020905b8154815290600101906020018083116105e257829003601f168201915b5050505050905090565b60006106148261178a565b610653576040517f08c379a000000000000000000000000000000000000000000000000000000000815260040161064a90613971565b60405180910390fd5b6004600083815260200190815260200160002060009054906101000a900473ffffffffffffffffffffffffffffffffffffffff169050919050565b600061069982610b0a565b90508073ffffffffffffffffffffffffffffffffffffffff168373ffffffffffffffffffffffffffffffffffffffff16141561070a576040517f08c379a0000000000000000000000000000000000000000000000000000000008152600401610701906139d1565b60405180910390fd5b8073ffffffffffffffffffffffffffffffffffffffff166107296117f6565b73ffffffffffffffffffffffffffffffffffffffff1614806107585750610757816107526117f6565b6115f0565b5b610797576040517f08c379a000000000000000000000000000000000000000000000000000000000815260040161078e906138b1565b60405180910390fd5b6107a183836117fe565b505050565b6107b76107b16117f6565b826118b7565b6107f6576040517f08c379a00000000000000000000000000000000000000000000000000000000081526004016107ed906139f1565b60405180910390fd5b610801838383611995565b505050565b6060600061081e83426108199190613b05565b6109ec565b90506000610842600a85426108339190613b05565b61083d9190613be6565b6109ec565b90506000610866600a86426108579190613b05565b6108619190613b05565b6109ec565b9050600b600c84600f600d86600f600e88600f60106040516020016108959b9a99989796959493929190613517565b6040516020818303038152906040529350505050919050565b606060006108e26108be84611bf1565b6040516020016108ce9190613639565b604051602081830303815290604052611d9e565b9050601580549050816108f59190613d4b565b905060158181548110610931577f4e487b7100000000000000000000000000000000000000000000000000000000600052603260045260246000fd5b90600052602060002001805461094690613cd0565b80601f016020809104026020016040519081016040528092919081815260200182805461097290613cd0565b80156109bf5780601f10610994576101008083540402835291602001916109bf565b820191906000526020600020905b8154815290600101906020018083116109a257829003601f168201915b5050505050915050919050565b6109e78383836040518060200160405280600081525061131e565b505050565b60606000610a206109fc84611bf1565b604051602001610a0c919061367d565b604051602081830303815290604052611d9e565b905060098054905081610a339190613d4b565b905060098181548110610a6f577f4e487b7100000000000000000000000000000000000000000000000000000000600052603260045260246000fd5b906000526020600020018054610a8490613cd0565b80601f0160208091040260200160405190810160405280929190818152602001828054610ab090613cd0565b8015610afd5780601f10610ad257610100808354040283529160200191610afd565b820191906000526020600020905b815481529060010190602001808311610ae057829003601f168201915b5050505050915050919050565b6000806002600084815260200190815260200160002060009054906101000a900473ffffffffffffffffffffffffffffffffffffffff169050600073ffffffffffffffffffffffffffffffffffffffff168173ffffffffffffffffffffffffffffffffffffffff161415610bb3576040517f08c379a0000000000000000000000000000000000000000000000000000000008152600401610baa906138f1565b60405180910390fd5b80915050919050565b60008073ffffffffffffffffffffffffffffffffffffffff168273ffffffffffffffffffffffffffffffffffffffff161415610c2d576040517f08c379a0000000000000000000000000000000000000000000000000000000008152600401610c24906138d1565b60405180910390fd5b600360008373ffffffffffffffffffffffffffffffffffffffff1673ffffffffffffffffffffffffffffffffffffffff168152602001908152602001600020549050919050565b60606000610c8c8342610c879190613b05565b6108ae565b90506000610cb0600a8542610ca19190613b05565b610cab9190613be6565b6111b5565b90506000610cd4600a8642610cc59190613b05565b610ccf9190613b05565b611380565b9050828282604051602001610ceb93929190613481565b6040516020818303038152906040529350505050919050565b606060018054610d1390613cd0565b80601f0160208091040260200160405190810160405280929190818152602001828054610d3f90613cd0565b8015610d8c5780601f10610d6157610100808354040283529160200191610d8c565b820191906000526020600020905b815481529060010190602001808311610d6f57829003601f168201915b5050505050905090565b601960085410610ddb576040517f08c379a0000000000000000000000000000000000000000000000000000000008152600401610dd290613a11565b60405180910390fd5b6000610de76007611dd1565b9050610df33382611ddf565b6000610dfe82610c74565b9050610e3f6040518060400160405280601481526020017f47656e65726174656420776f726420697320257300000000000000000000000081525082611dfd565b6000610e4a83610806565b90506000600a82601160128660136014604051602001610e7097969594939291906134b2565b6040516020818303038152906040529050610ec06040518060400160405280600c81526020017f46696e616c20535647202573000000000000000000000000000000000000000081525082611dfd565b600083610ecc83611e99565b604051602001610edd9291906135b0565b60405160208183030381529060405290506000610ef982611e99565b604051602001610f09919061365b565b6040516020818303038152906040529050610f596040518060400160405280601281526020017f46696e616c20546f6b656e20555249202573000000000000000000000000000081525082611dfd565b610f638682612057565b610f6d60076120cb565b600160086000828254610f809190613b05565b925050819055507febb98688741ffa4c7589bf325de30cf7becb63de567842e1ccdb6cb949fdc82c3387604051610fb8929190613706565b60405180910390a1610fe36040518060600160405280602a8152602001613ea6602a913987336120e1565b505050505050565b610ff36117f6565b73ffffffffffffffffffffffffffffffffffffffff168273ffffffffffffffffffffffffffffffffffffffff161415611061576040517f08c379a000000000000000000000000000000000000000000000000000000000815260040161105890613871565b60405180910390fd5b806005600061106e6117f6565b73ffffffffffffffffffffffffffffffffffffffff1673ffffffffffffffffffffffffffffffffffffffff16815260200190815260200160002060008473ffffffffffffffffffffffffffffffffffffffff1673ffffffffffffffffffffffffffffffffffffffff16815260200190815260200160002060006101000a81548160ff0219169083151502179055508173ffffffffffffffffffffffffffffffffffffffff1661111b6117f6565b73ffffffffffffffffffffffffffffffffffffffff167f17307eab39ab6107e8899845ad3d59bd9653f200f220920489ca2b5937696c3183604051611160919061372f565b60405180910390a35050565b60006111ae6040518060400160405280601681526020017f5765206861766520256420746f74616c206e66743a20000000000000000000008152506019611684565b6019905090565b606060006111e96111c584611bf1565b6040516020016111d59190613617565b604051602081830303815290604052611d9e565b9050601680549050816111fc9190613d4b565b905060168181548110611238577f4e487b7100000000000000000000000000000000000000000000000000000000600052603260045260246000fd5b90600052602060002001805461124d90613cd0565b80601f016020809104026020016040519081016040528092919081815260200182805461127990613cd0565b80156112c65780601f1061129b576101008083540402835291602001916112c6565b820191906000526020600020905b8154815290600101906020018083116112a957829003601f168201915b5050505050915050919050565b60006113166040518060400160405280601681526020017f5765206861766520256420746f74616c206e66743a2000000000000000000000815250600854611684565b600854905090565b61132f6113296117f6565b836118b7565b61136e576040517f08c379a0000000000000000000000000000000000000000000000000000000008152600401611365906139f1565b60405180910390fd5b61137a84848484612180565b50505050565b606060006113b461139084611bf1565b6040516020016113a091906135f5565b604051602081830303815290604052611d9e565b9050601780549050816113c79190613d4b565b905060178181548110611403577f4e487b7100000000000000000000000000000000000000000000000000000000600052603260045260246000fd5b90600052602060002001805461141890613cd0565b80601f016020809104026020016040519081016040528092919081815260200182805461144490613cd0565b80156114915780601f1061146657610100808354040283529160200191611491565b820191906000526020600020905b81548152906001019060200180831161147457829003601f168201915b5050505050915050919050565b60606114a98261178a565b6114e8576040517f08c379a00000000000000000000000000000000000000000000000000000000081526004016114df90613951565b60405180910390fd5b600060066000848152602001908152602001600020805461150890613cd0565b80601f016020809104026020016040519081016040528092919081815260200182805461153490613cd0565b80156115815780601f1061155657610100808354040283529160200191611581565b820191906000526020600020905b81548152906001019060200180831161156457829003601f168201915b5050505050905060006115926121dc565b90506000815114156115a85781925050506115eb565b6000825111156115dd5780826040516020016115c592919061345d565b604051602081830303815290604052925050506115eb565b6115e6846121f3565b925050505b919050565b6000600560008473ffffffffffffffffffffffffffffffffffffffff1673ffffffffffffffffffffffffffffffffffffffff16815260200190815260200160002060008373ffffffffffffffffffffffffffffffffffffffff1673ffffffffffffffffffffffffffffffffffffffff16815260200190815260200160002060009054906101000a900460ff16905092915050565b61171c828260405160240161169a9291906137a3565b6040516020818303038152906040527f9710a9d0000000000000000000000000000000000000000000000000000000007bffffffffffffffffffffffffffffffffffffffffffffffffffffffff19166020820180517bffffffffffffffffffffffffffffffffffffffffffffffffffffffff838183161783525050505061229a565b5050565b60007f01ffc9a7000000000000000000000000000000000000000000000000000000007bffffffffffffffffffffffffffffffffffffffffffffffffffffffff1916827bffffffffffffffffffffffffffffffffffffffffffffffffffffffff1916149050919050565b60008073ffffffffffffffffffffffffffffffffffffffff166002600084815260200190815260200160002060009054906101000a900473ffffffffffffffffffffffffffffffffffffffff1673ffffffffffffffffffffffffffffffffffffffff1614159050919050565b600033905090565b816004600083815260200190815260200160002060006101000a81548173ffffffffffffffffffffffffffffffffffffffff021916908373ffffffffffffffffffffffffffffffffffffffff160217905550808273ffffffffffffffffffffffffffffffffffffffff1661187183610b0a565b73ffffffffffffffffffffffffffffffffffffffff167f8c5be1e5ebec7d5bd14f71427d1e84f3dd0314c0f7b2291e5b200ac8c7c3b92560405160405180910390a45050565b60006118c28261178a565b611901576040517f08c379a00000000000000000000000000000000000000000000000000000000081526004016118f890613891565b60405180910390fd5b600061190c83610b0a565b90508073ffffffffffffffffffffffffffffffffffffffff168473ffffffffffffffffffffffffffffffffffffffff16148061197b57508373ffffffffffffffffffffffffffffffffffffffff1661196384610609565b73ffffffffffffffffffffffffffffffffffffffff16145b8061198c575061198b81856115f0565b5b91505092915050565b8273ffffffffffffffffffffffffffffffffffffffff166119b582610b0a565b73ffffffffffffffffffffffffffffffffffffffff1614611a0b576040517f08c379a0000000000000000000000000000000000000000000000000000000008152600401611a0290613991565b60405180910390fd5b600073ffffffffffffffffffffffffffffffffffffffff168273ffffffffffffffffffffffffffffffffffffffff161415611a7b576040517f08c379a0000000000000000000000000000000000000000000000000000000008152600401611a7290613851565b60405180910390fd5b611a868383836122c3565b611a916000826117fe565b6001600360008573ffffffffffffffffffffffffffffffffffffffff1673ffffffffffffffffffffffffffffffffffffffff1681526020019081526020016000206000828254611ae19190613be6565b925050819055506001600360008473ffffffffffffffffffffffffffffffffffffffff1673ffffffffffffffffffffffffffffffffffffffff1681526020019081526020016000206000828254611b389190613b05565b92505081905550816002600083815260200190815260200160002060006101000a81548173ffffffffffffffffffffffffffffffffffffffff021916908373ffffffffffffffffffffffffffffffffffffffff160217905550808273ffffffffffffffffffffffffffffffffffffffff168473ffffffffffffffffffffffffffffffffffffffff167fddf252ad1be2c89b69c2b068fc378daa952ba7f163c4a11628f55a4df523b3ef60405160405180910390a4505050565b60606000821415611c39576040518060400160405280600181526020017f30000000000000000000000000000000000000000000000000000000000000008152509050611d99565b600082905060005b60008214611c6b578080611c5490613d02565b915050600a82611c649190613b5b565b9150611c41565b60008167ffffffffffffffff811115611cad577f4e487b7100000000000000000000000000000000000000000000000000000000600052604160045260246000fd5b6040519080825280601f01601f191660200182016040528015611cdf5781602001600182028036833780820191505090505b5090505b60008514611d9257600182611cf89190613be6565b9150600a85611d079190613d4b565b6030611d139190613b05565b60f81b818381518110611d4f577f4e487b7100000000000000000000000000000000000000000000000000000000600052603260045260246000fd5b60200101907effffffffffffffffffffffffffffffffffffffffffffffffffffffffffffff1916908160001a905350600a85611d8b9190613b5b565b9450611ce3565b8093505050505b919050565b600081604051602001611db19190613446565b6040516020818303038152906040528051906020012060001c9050919050565b600081600001549050919050565b611df98282604051806020016040528060008152506122c8565b5050565b611e958282604051602401611e1392919061376c565b6040516020818303038152906040527f4b5c4277000000000000000000000000000000000000000000000000000000007bffffffffffffffffffffffffffffffffffffffffffffffffffffffff19166020820180517bffffffffffffffffffffffffffffffffffffffffffffffffffffffff838183161783525050505061229a565b5050565b60606000825190506000811415611ec25760405180602001604052806000815250915050612052565b60006003600283611ed39190613b05565b611edd9190613b5b565b6004611ee99190613b8c565b90506000602082611efa9190613b05565b67ffffffffffffffff811115611f39577f4e487b7100000000000000000000000000000000000000000000000000000000600052604160045260246000fd5b6040519080825280601f01601f191660200182016040528015611f6b5781602001600182028036833780820191505090505b5090506000604051806060016040528060408152602001613ed0604091399050600181016020830160005b8681101561200f5760038101905062ffffff818a015116603f8160121c168401518060081b905060ff603f83600c1c1686015116810190508060081b905060ff603f8360061c1686015116810190508060081b905060ff603f831686015116810190508060e01b90508084526004840193505050611f96565b506003860660018114612029576002811461203957612044565b613d3d60f01b6002830352612044565b603d60f81b60018303525b508484525050819450505050505b919050565b6120608261178a565b61209f576040517f08c379a000000000000000000000000000000000000000000000000000000000815260040161209690613911565b60405180910390fd5b806006600084815260200190815260200160002090805190602001906120c692919061269b565b505050565b6001816000016000828254019250508190555050565b61217b8383836040516024016120f9939291906137d3565b6040516020818303038152906040527fe3849f79000000000000000000000000000000000000000000000000000000007bffffffffffffffffffffffffffffffffffffffffffffffffffffffff19166020820180517bffffffffffffffffffffffffffffffffffffffffffffffffffffffff838183161783525050505061229a565b505050565b61218b848484611995565b61219784848484612323565b6121d6576040517f08c379a00000000000000000000000000000000000000000000000000000000081526004016121cd90613811565b60405180910390fd5b50505050565b606060405180602001604052806000815250905090565b60606121fe8261178a565b61223d576040517f08c379a0000000000000000000000000000000000000000000000000000000008152600401612234906139b1565b60405180910390fd5b60006122476121dc565b905060008151116122675760405180602001604052806000815250612292565b8061227184611bf1565b60405160200161228292919061345d565b6040516020818303038152906040525b915050919050565b60008151905060006a636f6e736f6c652e6c6f679050602083016000808483855afa5050505050565b505050565b6122d283836124ba565b6122df6000848484612323565b61231e576040517f08c379a000000000000000000000000000000000000000000000000000000000815260040161231590613811565b60405180910390fd5b505050565b60006123448473ffffffffffffffffffffffffffffffffffffffff16612688565b156124ad578373ffffffffffffffffffffffffffffffffffffffff1663150b7a0261236d6117f6565b8786866040518563ffffffff1660e01b815260040161238f94939291906136ba565b602060405180830381600087803b1580156123a957600080fd5b505af19250505080156123da57506040513d601f19601f820116820180604052508101906123d791906129df565b60015b61245d573d806000811461240a576040519150601f19603f3d011682016040523d82523d6000602084013e61240f565b606091505b50600081511415612455576040517f08c379a000000000000000000000000000000000000000000000000000000000815260040161244c90613811565b60405180910390fd5b805181602001fd5b63150b7a0260e01b7bffffffffffffffffffffffffffffffffffffffffffffffffffffffff1916817bffffffffffffffffffffffffffffffffffffffffffffffffffffffff1916149150506124b2565b600190505b949350505050565b600073ffffffffffffffffffffffffffffffffffffffff168273ffffffffffffffffffffffffffffffffffffffff16141561252a576040517f08c379a000000000000000000000000000000000000000000000000000000000815260040161252190613931565b60405180910390fd5b6125338161178a565b15612573576040517f08c379a000000000000000000000000000000000000000000000000000000000815260040161256a90613831565b60405180910390fd5b61257f600083836122c3565b6001600360008473ffffffffffffffffffffffffffffffffffffffff1673ffffffffffffffffffffffffffffffffffffffff16815260200190815260200160002060008282546125cf9190613b05565b92505081905550816002600083815260200190815260200160002060006101000a81548173ffffffffffffffffffffffffffffffffffffffff021916908373ffffffffffffffffffffffffffffffffffffffff160217905550808273ffffffffffffffffffffffffffffffffffffffff16600073ffffffffffffffffffffffffffffffffffffffff167fddf252ad1be2c89b69c2b068fc378daa952ba7f163c4a11628f55a4df523b3ef60405160405180910390a45050565b600080823b905060008111915050919050565b8280546126a790613cd0565b90600052602060002090601f0160209004810192826126c95760008555612710565b82601f106126e257805160ff1916838001178555612710565b82800160010185558215612710579182015b8281111561270f5782518255916020019190600101906126f4565b5b50905061271d9190612721565b5090565b5b8082111561273a576000816000905550600101612722565b5090565b600061275161274c84613a7d565b613a4c565b90508281526020810184848401111561276957600080fd5b612774848285613c8e565b509392505050565b60008135905061278b81613e49565b92915050565b6000813590506127a081613e60565b92915050565b6000813590506127b581613e77565b92915050565b6000815190506127ca81613e77565b92915050565b600082601f8301126127e157600080fd5b81356127f184826020860161273e565b91505092915050565b60008135905061280981613e8e565b92915050565b60006020828403121561282157600080fd5b600061282f8482850161277c565b91505092915050565b6000806040838503121561284b57600080fd5b60006128598582860161277c565b925050602061286a8582860161277c565b9150509250929050565b60008060006060848603121561288957600080fd5b60006128978682870161277c565b93505060206128a88682870161277c565b92505060406128b9868287016127fa565b9150509250925092565b600080600080608085870312156128d957600080fd5b60006128e78782880161277c565b94505060206128f88782880161277c565b9350506040612909878288016127fa565b925050606085013567ffffffffffffffff81111561292657600080fd5b612932878288016127d0565b91505092959194509250565b6000806040838503121561295157600080fd5b600061295f8582860161277c565b925050602061297085828601612791565b9150509250929050565b6000806040838503121561298d57600080fd5b600061299b8582860161277c565b92505060206129ac858286016127fa565b9150509250929050565b6000602082840312156129c857600080fd5b60006129d6848285016127a6565b91505092915050565b6000602082840312156129f157600080fd5b60006129ff848285016127bb565b91505092915050565b600060208284031215612a1a57600080fd5b6000612a28848285016127fa565b91505092915050565b612a3a81613c1a565b82525050565b612a4981613c2c565b82525050565b6000612a5a82613ac2565b612a648185613ad8565b9350612a74818560208601613c9d565b612a7d81613e38565b840191505092915050565b6000612a9382613acd565b612a9d8185613ae9565b9350612aad818560208601613c9d565b612ab681613e38565b840191505092915050565b6000612acc82613acd565b612ad68185613afa565b9350612ae6818560208601613c9d565b80840191505092915050565b60008154612aff81613cd0565b612b098186613afa565b94506001821660008114612b245760018114612b3557612b68565b60ff19831686528186019350612b68565b612b3e85613aad565b60005b83811015612b6057815481890152600182019150602081019050612b41565b838801955050505b50505092915050565b6000612b7e600983613afa565b91507f7b226e616d65223a2200000000000000000000000000000000000000000000006000830152600982019050919050565b6000612bbe603283613ae9565b91507f4552433732313a207472616e7366657220746f206e6f6e20455243373231526560008301527f63656976657220696d706c656d656e74657200000000000000000000000000006020830152604082019050919050565b6000612c24601c83613ae9565b91507f4552433732313a20746f6b656e20616c7265616479206d696e746564000000006000830152602082019050919050565b6000612c64600a83613afa565b91507f54484952445f574f5244000000000000000000000000000000000000000000006000830152600a82019050919050565b6000612ca4602483613ae9565b91507f4552433732313a207472616e7366657220746f20746865207a65726f2061646460008301527f72657373000000000000000000000000000000000000000000000000000000006020830152604082019050919050565b6000612d0a601983613ae9565b91507f4552433732313a20617070726f766520746f2063616c6c6572000000000000006000830152602082019050919050565b6000612d4a600b83613afa565b91507f5345434f4e445f574f52440000000000000000000000000000000000000000006000830152600b82019050919050565b6000612d8a602c83613ae9565b91507f4552433732313a206f70657261746f7220717565727920666f72206e6f6e657860008301527f697374656e7420746f6b656e00000000000000000000000000000000000000006020830152604082019050919050565b6000612df0603883613ae9565b91507f4552433732313a20617070726f76652063616c6c6572206973206e6f74206f7760008301527f6e6572206e6f7220617070726f76656420666f7220616c6c00000000000000006020830152604082019050919050565b6000612e56602a83613ae9565b91507f4552433732313a2062616c616e636520717565727920666f7220746865207a6560008301527f726f2061646472657373000000000000000000000000000000000000000000006020830152604082019050919050565b6000612ebc602983613ae9565b91507f4552433732313a206f776e657220717565727920666f72206e6f6e657869737460008301527f656e7420746f6b656e00000000000000000000000000000000000000000000006020830152604082019050919050565b6000612f22602e83613ae9565b91507f45524337323155524953746f726167653a2055524920736574206f66206e6f6e60008301527f6578697374656e7420746f6b656e0000000000000000000000000000000000006020830152604082019050919050565b6000612f88600283613afa565b91507f227d0000000000000000000000000000000000000000000000000000000000006000830152600282019050919050565b6000612fc8602083613ae9565b91507f4552433732313a206d696e7420746f20746865207a65726f20616464726573736000830152602082019050919050565b6000613008603183613ae9565b91507f45524337323155524953746f726167653a2055524920717565727920666f722060008301527f6e6f6e6578697374656e7420746f6b656e0000000000000000000000000000006020830152604082019050919050565b600061306e602c83613ae9565b91507f4552433732313a20617070726f76656420717565727920666f72206e6f6e657860008301527f697374656e7420746f6b656e00000000000000000000000000000000000000006020830152604082019050919050565b60006130d4602983613ae9565b91507f4552433732313a207472616e73666572206f6620746f6b656e2074686174206960008301527f73206e6f74206f776e00000000000000000000000000000000000000000000006020830152604082019050919050565b600061313a602f83613ae9565b91507f4552433732314d657461646174613a2055524920717565727920666f72206e6f60008301527f6e6578697374656e7420746f6b656e00000000000000000000000000000000006020830152604082019050919050565b60006131a0602183613ae9565b91507f4552433732313a20617070726f76616c20746f2063757272656e74206f776e6560008301527f72000000000000000000000000000000000000000000000000000000000000006020830152604082019050919050565b6000613206600a83613afa565b91507f46495253545f574f5244000000000000000000000000000000000000000000006000830152600a82019050919050565b6000613246606a83613afa565b91507f222c20226465736372697074696f6e223a22412072616e646f6d6c792067656e60008301527f65726174656420746872656520776f72642064657363726962696e672061206660208301527f6f6f64222c2022696d616765223a2022646174613a696d6167652f7376672b7860408301527f6d6c3b6261736536342c000000000000000000000000000000000000000000006060830152606a82019050919050565b60006132f8601d83613afa565b91507f646174613a6170706c69636174696f6e2f6a736f6e3b6261736536342c0000006000830152601d82019050919050565b6000613338603183613ae9565b91507f4552433732313a207472616e736665722063616c6c6572206973206e6f74206f60008301527f776e6572206e6f7220617070726f7665640000000000000000000000000000006020830152604082019050919050565b600061339e603783613ae9565b91507f57652068617665207265616368656420746865206d6178696d756d206e756d6260008301527f6572206f66204e4654732077652063616e206d696e742e0000000000000000006020830152604082019050919050565b6000613404600583613afa565b91507f434f4c4f520000000000000000000000000000000000000000000000000000006000830152600582019050919050565b61344081613c84565b82525050565b60006134528284612ac1565b915081905092915050565b60006134698285612ac1565b91506134758284612ac1565b91508190509392505050565b600061348d8286612ac1565b91506134998285612ac1565b91506134a58284612ac1565b9150819050949350505050565b60006134be828a612af2565b91506134ca8289612ac1565b91506134d68288612af2565b91506134e28287612af2565b91506134ee8286612ac1565b91506134fa8285612af2565b91506135068284612af2565b915081905098975050505050505050565b6000613523828e612af2565b915061352f828d612af2565b915061353b828c612ac1565b9150613547828b612af2565b9150613553828a612af2565b915061355f8289612ac1565b915061356b8288612af2565b91506135778287612af2565b91506135838286612ac1565b915061358f8285612af2565b915061359b8284612af2565b91508190509c9b505050505050505050505050565b60006135bb82612b71565b91506135c78285612ac1565b91506135d282613239565b91506135de8284612ac1565b91506135e982612f7b565b91508190509392505050565b600061360082612c57565b915061360c8284612ac1565b915081905092915050565b600061362282612d3d565b915061362e8284612ac1565b915081905092915050565b6000613644826131f9565b91506136508284612ac1565b915081905092915050565b6000613666826132eb565b91506136728284612ac1565b915081905092915050565b6000613688826133f7565b91506136948284612ac1565b915081905092915050565b60006020820190506136b46000830184612a31565b92915050565b60006080820190506136cf6000830187612a31565b6136dc6020830186612a31565b6136e96040830185613437565b81810360608301526136fb8184612a4f565b905095945050505050565b600060408201905061371b6000830185612a31565b6137286020830184613437565b9392505050565b60006020820190506137446000830184612a40565b92915050565b600060208201905081810360008301526137648184612a88565b905092915050565b600060408201905081810360008301526137868185612a88565b9050818103602083015261379a8184612a88565b90509392505050565b600060408201905081810360008301526137bd8185612a88565b90506137cc6020830184613437565b9392505050565b600060608201905081810360008301526137ed8186612a88565b90506137fc6020830185613437565b6138096040830184612a31565b949350505050565b6000602082019050818103600083015261382a81612bb1565b9050919050565b6000602082019050818103600083015261384a81612c17565b9050919050565b6000602082019050818103600083015261386a81612c97565b9050919050565b6000602082019050818103600083015261388a81612cfd565b9050919050565b600060208201905081810360008301526138aa81612d7d565b9050919050565b600060208201905081810360008301526138ca81612de3565b9050919050565b600060208201905081810360008301526138ea81612e49565b9050919050565b6000602082019050818103600083015261390a81612eaf565b9050919050565b6000602082019050818103600083015261392a81612f15565b9050919050565b6000602082019050818103600083015261394a81612fbb565b9050919050565b6000602082019050818103600083015261396a81612ffb565b9050919050565b6000602082019050818103600083015261398a81613061565b9050919050565b600060208201905081810360008301526139aa816130c7565b9050919050565b600060208201905081810360008301526139ca8161312d565b9050919050565b600060208201905081810360008301526139ea81613193565b9050919050565b60006020820190508181036000830152613a0a8161332b565b9050919050565b60006020820190508181036000830152613a2a81613391565b9050919050565b6000602082019050613a466000830184613437565b92915050565b6000604051905081810181811067ffffffffffffffff82111715613a7357613a72613e09565b5b8060405250919050565b600067ffffffffffffffff821115613a9857613a97613e09565b5b601f19601f8301169050602081019050919050565b60008190508160005260206000209050919050565b600081519050919050565b600081519050919050565b600082825260208201905092915050565b600082825260208201905092915050565b600081905092915050565b6000613b1082613c84565b9150613b1b83613c84565b9250827fffffffffffffffffffffffffffffffffffffffffffffffffffffffffffffffff03821115613b5057613b4f613d7c565b5b828201905092915050565b6000613b6682613c84565b9150613b7183613c84565b925082613b8157613b80613dab565b5b828204905092915050565b6000613b9782613c84565b9150613ba283613c84565b9250817fffffffffffffffffffffffffffffffffffffffffffffffffffffffffffffffff0483118215151615613bdb57613bda613d7c565b5b828202905092915050565b6000613bf182613c84565b9150613bfc83613c84565b925082821015613c0f57613c0e613d7c565b5b828203905092915050565b6000613c2582613c64565b9050919050565b60008115159050919050565b60007fffffffff0000000000000000000000000000000000000000000000000000000082169050919050565b600073ffffffffffffffffffffffffffffffffffffffff82169050919050565b6000819050919050565b82818337600083830152505050565b60005b83811015613cbb578082015181840152602081019050613ca0565b83811115613cca576000848401525b50505050565b60006002820490506001821680613ce857607f821691505b60208210811415613cfc57613cfb613dda565b5b50919050565b6000613d0d82613c84565b91507fffffffffffffffffffffffffffffffffffffffffffffffffffffffffffffffff821415613d4057613d3f613d7c565b5b600182019050919050565b6000613d5682613c84565b9150613d6183613c84565b925082613d7157613d70613dab565b5b828206905092915050565b7f4e487b7100000000000000000000000000000000000000000000000000000000600052601160045260246000fd5b7f4e487b7100000000000000000000000000000000000000000000000000000000600052601260045260246000fd5b7f4e487b7100000000000000000000000000000000000000000000000000000000600052602260045260246000fd5b7f4e487b7100000000000000000000000000000000000000000000000000000000600052604160045260246000fd5b6000601f19601f8301169050919050565b613e5281613c1a565b8114613e5d57600080fd5b50565b613e6981613c2c565b8114613e7457600080fd5b50565b613e8081613c38565b8114613e8b57600080fd5b50565b613e9781613c84565b8114613ea257600080fd5b5056fe416e204d6967616e4e465420772f20494420257320686173206265656e206d696e74656420746f2025734142434445464748494a4b4c4d4e4f505152535455565758595a6162636465666768696a6b6c6d6e6f707172737475767778797a303132333435363738392b2fa2646970667358221220b5db4bbe29e5c4f9dea0ff5cbc23a4a5f6e3e706fc4ccd591f93b693ab3910d864736f6c634300080000333c7374796c653e2e62617365207b2066696c6c3a2077686974653b20666f6e742d66616d696c793a2073657269663b20666f6e742d73697a653a20323470783b207d3c2f7374796c653e3c73766720786d6c6e733d27687474703a2f2f7777772e77332e6f72672f323030302f73766727207072657365727665417370656374526174696f3d27784d696e594d696e206d656574272076696577426f783d273020302033353020333530273e486f6c61212054686973206973206d792065706963204e465420436f6e747261637420596f213c726563742077696474683d273130302527206865696768743d2731303025272066696c6c3d2775726c28236772616469656e742927202f3e3c7465787420783d273530252720793d273530252720636c6173733d27626173652720646f6d696e616e742d626173656c696e653d276d6964646c652720746578742d616e63686f723d276d6964646c65273e3c646566733e3c72616469616c4772616469656e742069643d276772616469656e74273e",
  "linkReferences": {},
  "deployedLinkReferences": {}
}